:0300000002046E89
:0C046E00787FE4F6D8FD75814D0204B5DE
:10094C0020202D20202D20200020203A20203A206D
:02095C00200079
:10084500070818091C0B22370601100001140001C6
:020855000F0092
:100660001203E1E51FFB7A007534027D017F011260
:1006700008D9E520FB7A007534027D047F01120859
:10068000D9E521FB7A007534027D077F011208D974
:10069000E522FB7A007534027D017F021208D9E55C
:1006A00023FB7A007534027D047F021208D9E52409
:0D06B000FB7A007534027D077F020208D935
:10057E00E515B4020C0511E511D394054003E4F51D
:10058E0011E515B40306741F2511F806E515B4041C
:10059E0006741F2511F816E51FFB7A007534027DCF
:1005AE00017F011208D9E520FB7A007534027D0423
:1005BE007F011208D9E521FB7A007534027D077F91
:1005CE00011208D9E522FB7A007534027D017F0203
:1005DE001208D9E523FB7A007534027D047F0212DE
:1005EE0008D9E524FB7A007534027D077F020208E4
:0105FE00D923
:10017D00E515B4020E0511E511D394064078E4F5AA
:10018D00118073E5156403702FE511C39406500AB1
:10019D0074082511F8067F328033E5116406705618
:1001AD00E514C3940F500C74052514F5147FD07EFF
:1001BD00078040751405803EE51564047038E5111F
:1001CD00C39406500C74082511F8167F6F7E0080BD
:1001DD0022E511B40620E514C3940F400874FB25E5
:1001ED0014F514800375140F7FD07E071208997FC4
:1001FD006F7E00120899E508FB7A007534027D01C7
:10020D007F011208D9E509FB7A007534027D047F60
:10021D00011208D9E50AFB7A007534027D077F01CA
:10022D001208D9E50BFB7A007534027D017F0212AD
:10023D0008D9E50CFB7A007534027D047F021208A3
:10024D00D9E50DFB7A007534027D077F020208D9CE
:10025D001209381209877BFF7A09794C7D017F01DC
:10026D001208767BFF7A0979557D017F0212087697
:10027D001200031205FF8F15E515B4011EE512706E
:10028D00057512018015E512B40105751202800B7A
:10029D00E512B40206E4F512751001E51214600CB6
:1002AD0014600E2402700D120660800812057E8007
:1002BD000312017DE51060BBE50F70B7E51FB508B2
:1002CD00B2E520650970ACE521650A70A6E52265E9
:1002DD000B70A0E523650C709AE524650D7094E50F
:1002ED0014B405077FF47E01120899E514B40A1CB5
:1002FD007FF47E011208997F647E001209237FF43A
:10030D007E011208997F647E00120923E514B40F53
:0E031D00077FD07E07120899750F010202803B
:10092300EF1FAC0670011E4C600A7D027CEFDCFEFB
:04093300DDFC80EC7B
:01093700229D
:05098100007FF7DFFE1E
:01098600224E
:04089900AD07AC06F5
:10089D00E4FBFAED25E0FFEC33FEC3EB9FEA9E503F
:0D08AD000CB2A51209810BBB00010A80E608
:0108BA00221B
:10085700071F18091C0B223706071818091C0B223B
:02086700370652
:05098700C2B5C2B6225A
:0506BD002DFDEE3CFCE8
:0606C2008C308D31AB0706
:1006C800D2B5E4FD74017E00A805088005C333CEC9
:1006D80033CED8F9FFEBF582EF558224FF92B4D2DE
:1006E800B6C2B60DBD08DDE4FD74017E00A805089C
:1006F8008005C333CE33CED8F9FFE5305EFEE53151
:100708005F4E24FF92B4D2B6C2B60DBD08DBC2B5A7
:0107180022BE
:02071900AD072A
:10071B00E4F9430501D2B5FB74017E00A803088000
:10072B0005C333CE33CED8F9FFEDF582EF558224D6
:10073B00FF92B4C2B6D2B60BBB08DDE4FBD2B6C295
:10074B00B630B40D7401A803088002C333D8FC4241
:0B075B00010BBB08E8C2B5C2B4AF013F
:010766002270
:10000300E4FDFC7F8E1206C2E51F75F00A12032B76
:10001300FF3395E0FEEFC4F8540FC868FFEEC454F5
:10002300F048FEE51F75F00A12032BADF0ED339592
:10003300E0FCEF7F8C1206BDE52075F00A12032B5E
:10004300FF3395E0FEEFC4F8540FC868FFEEC454C5
:10005300F048FEE52075F00A12032BADF0ED339561
:10006300E0FCEF7F881206BDE52175F00A12032B31
:10007300FF3395E0FEEFC4F8540FC868FFEEC45495
:10008300F048FEE52175F00A12032BADF0ED339530
:10009300E0FCEF2DFDEE3CFC7F861206C2E52275E7
:1000A300F00A12032BFF3395E0FEEFC4F8540FC898
:1000B30068FFEEC454F048FEE52275F00A12032BE4
:1000C300ADF0ED3395E0FCEF2DFDEE3CFC7F8412AB
:1000D30006C2E52375F00A12032BFF3395E0FEEF0A
:1000E300C4F8540FC868FFEEC454F048FEE5237506
:1000F300F00A12032BADF0ED3395E0FCEF2DFDEE8E
:100103003CFC7F821206C2E52475F00A12032BFF22
:100113003395E0FEEFC4F8540FC868FFEEC454F003
:1001230048FEE52475F00A12032BADF0ED3395E09C
:10013300FCEF2DFDEE3CFC7F801206C2E52575F039
:100143000A12032BFF3395E0FEEFC4F8540FC8687F
:10015300FFEEC454F048FEE52575F00A12032BADFB
:10016300F0ED3395E0FCEF2DFDEE3CFC7F8A1206AB
:0A017300C27D807C007F8E0206C270
:1003E1007F8C120719EFC4540F75F00AA4FEEF5465
:1003F1000F2EF51F7F88120719EFC4540F75F00AED
:10040100A4FEEF540F2EF5207F86120719EFC45476
:100411000F75F00AA4FEEF540F2EF5217F84120709
:1004210019EFC4540F75F00AA4FEEF540F2EF522F4
:100431007F82120719EFC4540F75F00AA4FEEF541E
:100441000F2EF5237F80120719EFC4540F75F00AA0
:10045100A4FEEF540F2EF5247F8A120719EFC4541E
:0C0461000F75F00AA4FEEF540F2EF525D5
:01046D00226C
:1005FF00E4F53020B1137F14FE12092330B1FD7FD3
:10060F00147E0012092375300120B0147F147E0070
:10061F0012092330B0FD7F147E00120923753002BA
:10062F0020B2147F147E0012092330B2FD7F147E96
:10063F000012092375300320B3147F147E001209B2
:10064F002330B3FD7F147E00120923753004AF30C1
:01065F002278
:06095E00C2A58F80D2A7A4
:080964007F027EEFDEFEDFFCE6
:01096C002268
:0A096D00C2A612095EC2A7020964C7
:1008BB00CFCDCFCECCCE12038C7C007D0A12038C15
:0408CB00ED2430FFE9
:0A08CF00D2A612095EC2A702096456
:10090D00AE07BE0104ED148006BE0209ED243F447E
:06091D0080FF12096D22AB
:100938007F3812096D7F0C12096D7F0612096D7FD1
:040948000102096D32
:0A097700AC0312090DAF040208CF13
:060876008B308A3189324B
:10087C0012090DE4FDAB30AA31A9328D82758300CB
:0C088C0012034DFF60061208CF0D80E93A
:01089800223D
:0C0812007F0AEA24FFFDE434FFFC7E00B6
:08081E008E358F368C378D38C2
:100826007F017E00E4FBEBC39538E5376480F874FE
:0E0836008098500AAC35AD3612037A0B80E87C
:010844002291
:0408D9008A328B33A1
:1008DD0012090DAA34EAD39400400D120812AC325D
:0808ED00AD331208BB1A80EDC7
:0108F50022E0
:1007670012090DC3EA64809480400B7F2B1208CFD7
:100777008A3E8B3F800E7F2D1208CFC3E49BF53F47
:10078700E49AF53EAA3DEAD39400400D120812AC54
:090797003EAD3F1208BB1A80EDD3
:0107A0002236
:0407A1008A428B43BA
:1007A50012090DAA44EAD3940040297F10120814B7
:1007B500AC42AD43CFCDCFCECCCE12038CEF540F90
:1007C500FEC3940AEE5004243080022437FF120839
:0407D500CF1A80D1E6
:0107D90022FD
:0407DA008A478B4877
:1007DE0012090DAA49EAD394004028EA24FFFDE449
:1007EE0034FFFC7F027E0012081EAC47AD48CFCD11
:1007FE00CFCECCCE12038CEF54012430FF1208CF93
:03080E001A80D27B
:0108110022C4
:0C0869000A263F065B4F666D7D077F6F1F
:0604FA008B4A8A4B894C7D
:10050000E4F54DF54DE54DB40800504D900513F858
:1005100028287302052B02052F0205330205370236
:10052000053B02054302054B020553D2A4800ED2BF
:10053000A48012D2A48016D2A4801AC2A4D2A3D2BC
:10054000A28016C2A4D2A3C2A2800EC2A4C2A3D209
:10055000A28006C2A4C2A3C2A2AB4AAA4BA94C85E0
:100560004D8275830012034DF5807F017E001209D4
:0D05700023E4F580054DE54DC39408408857
:01057D00225B
:1008F6005389F0438901758A18758CFCC28DD28C98
:07090600D2A9D2AFC2B92251
:10047A0002025DE493A3F8E493A34003F68001F239
:10048A0008DFF48029E493A3F85407240CC8C33383
:10049A00C4540F4420C8834004F456800146F6DF52
:1004AA00E4800B0102040810204080900845E47E95
:1004BA00019360BCA3FF543F30E509541FFEE49347
:1004CA00A360010ECF54C025E060A840B8E493A30E
:1004DA00FAE493A3F8E493A3C8C582C8CAC583CA39
:1004EA00F0A3C8C582C8CAC583CADFE9DEE780BEF1
:010875000082
:10032B00C2D530F707B2D563F0FF05F030E70CB25A
:10033B00D5F4048463F0FF05F080018430D502F41A
:02034B0004228A
:10034D00BB010CE58229F582E5833AF583E0225065
:10035D0006E92582F8E622BBFE06E92582F8E222AF
:0D036D00E58229F582E5833AF583E49322C9
:10037A00EF8DF0A4A8F0CF8CF0A428CE8DF0A42E97
:02038A00FE2251
:10038C00BC000BBE0029EF8DF084FFADF022E4CC55
:10039C00F875F008EF2FFFEE33FEEC33FCEE9DEC1E
:1003AC00984005FCEE9DFE0FD5F0E9E4CEFD22ED64
:1003BC00F8F5F0EE8420D21CFEADF075F008EF2FAE
:1003CC00FFED33FD4007985006D5F0F222C398FD9F
:0503DC000FD5F0EA223C
:00000001FF
